:020000040800F2
:1000000000000824E92C0008E5260008E72600087F
:10001000E9260008EB260008ED2600080000000095
:1000200000000000000000000000000081A30008A4
:10003000EF2600080000000021A40008D9A1000854
:100040003D2D00083D2D00083D2D00083D2D0008E8
:100050003D2D00083D2D0008F1260008FB26000874
:100060003D2D0008052700083D2D00081127000838
:100070003D2D00083D2D00083D2D00083D2D0008B8
:100080003D2D00083D2D00083D2D000821270008CA
:10009000312700083D2D00083D2D000841270008AC
:1000A0003D2D00083D2D00083D2D00083D2D000888
:1000B000512700083D2D00083D2D00083D2D00086A
:1000C0003D2D00083D2D00083D2D00083D2D000868
:1000D0003D2D00083D2D00083D2D00083D2D000858
:1000E000612700083D2D0008000000003D2D00089C
:1000F0003D2D00083D2D00083D2D00083D2D000838
:100100003D2D00083D2D00083D2D00083D2D000827
:100110003D2D00083D2D00083D2D00083D2D000817
:100120003D2D00083D2D00083D2D00083D2D000807
:100130003D2D00083D2D00083D2D00083D2D0008F7
:1001400000000000000000000000000000000000AF
:100150003D2D00083D2D00083D2D00083D2D0008D7
:100160003D2D00083D2D00083D2D00083D2D0008C7
:100170003D2D00083D2D00083D2D00080000000029
:100180003D2D00083D2D00083D2D00083D2D0008A7
:100190003D2D00083D2D00083D2D00083D2D000897
:1001A0003D2D00083D2D00083D2D00083D2D000887
:1001B0003D2D00083D2D00083D2D00083D2D000877
:1001C0003D2D00083D2D00083D2D00083D2D000867
:1001D0003D2D00083D2D00083D2D00083D2D000857
:1001E0003D2D00083D2D00083D2D00083D2D000847
:1001F0003D2D00083D2D00083D2D00083D2D000837
:100200003D2D00083D2D00083D2D00083D2D000826
:100210003D2D00083D2D00083D2D00083D2D000816
:100220003D2D00083D2D00083D2D00080000000078
:100230003D2D00083D2D0008000000003D2D000868
:100240003D2D00083D2D00083D2D00083D2D0008E6
:100250003D2D00083D2D00083D2D00083D2D0008D6
:100260003D2D00083D2D00083D2D00083D2D0008C6
:100270003D2D00083D2D00083D2D00080000000028
:100280003D2D00083D2D00083D2D00080000000018
:08029000000000003D2D0008F4
:1002C00081F0004102E000BF83F0004330B54FEA07
:1002D00041044FEA430594EA050F08BF90EA020F74
:1002E0001FBF54EA000C55EA020C7FEA645C7FEA07
:1002F000655C00F0E2804FEA5454D4EB5555B8BF2A
:100300006D420CDD2C4480EA020281EA030382EA9A
:10031000000083EA010180EA020281EA0303362D2C
:1003200088BF30BD11F0004F4FEA01314FF4801CFF
:100330004CEA113102D0404261EB410113F0004F11
:100340004FEA03334CEA133302D0524263EB4303C8
:1003500094EA050F00F0A780A4F10104D5F1200E66
:100360000DDB02FA0EFC22FA05F2801841F10001C1
:1003700003FA0EF2801843FA05F359410EE0A5F195
:1003800020050EF1200E012A03FA0EFC28BF4CF0C6
:10039000020C43FA05F3C01851EBE37101F000457C
:1003A00007D54FF0000EDCF1000C7EEB00006EEB89
:1003B0000101B1F5801F1BD3B1F5001F0CD3490813
:1003C0005FEA30004FEA3C0C04F101044FEA44526A
:1003D00012F5800F80F09A80BCF1004F08BF5FEAF1
:1003E000500C50F1000041EB045141EA050130BDD1
:1003F0005FEA4C0C404141EB0101013C28BFB1F5E3
:10040000801FE9D291F0000F04BF01460020B1FA2D
:1004100081F308BF2033A3F10B03B3F120020CDA00
:100420000C3208DD02F1140CC2F10C0201FA0CF0DE
:1004300021FA02F10CE002F11402D8BFC2F1200C43
:1004400001FA02F120FA0CFCDCBF41EA0C019040F9
:10045000E41AA2BF01EB0451294330BD6FEA040442
:100460001F3C1CDA0C340EDC04F11404C4F120022D
:1004700020FA04F001FA02F340EA030021FA04F33F
:1004800045EA030130BDC4F10C04C4F1200220FA96
:1004900002F001FA04F340EA0300294630BD21FAD4
:1004A00004F0294630BD94F0000F83F4801306BF9A
:1004B00081F480110134013D4EE77FEA645C18BF8E
:1004C0007FEA655C29D094EA050F08BF90EA020F25
:1004D00005D054EA000C04BF1946104630BD91EA1D
:1004E000030F1EBF0021002030BD5FEA545C05D120
:1004F0004000494128BF41F0004130BD14F580045F
:100500003CBF01F5801130BD01F0004545F0FE41D2
:1005100041F470014FF0000030BD7FEA645C1ABF07
:10052000194610467FEA655C1CBF0B46024650EA3E
:10053000013406BF52EA033591EA030F41F400216A
:1005400030BD00BF90F0000F04BF0021704730B5F0
:100550004FF4806404F132044FF000054FF00001C5
:1005600050E700BF90F0000F04BF0021704730B586
:100570004FF4806404F1320410F0004548BF40425B
:100580004FF000013EE700BF42004FEAE2014FEAB0
:1005900031014FEA02701FBF12F07F4393F07F4F8B
:1005A00081F06051704732F07F4208BF704793F08E
:1005B0007F4F04BF41F40021704730B54FF46074A1
:1005C00001F0004521F000411CE700BF50EA0102A4
:1005D00008BF704730B54FF000050AE050EA01024D
:1005E00008BF704730B511F0004502D5404261EBBD
:1005F00041014FF4806404F132045FEA915C3FF4FE
:10060000D8AE4FF003025FEADC0C18BF03325FEA9A
:10061000DC0C18BF033202EBDC02C2F1200300FA4B
:1006200003FC20FA02F001FA03FE40EA0E0021FA70
:1006300002F11444BDE600BF4A0011D212F50012C7
:1006400011D20DD56FF47873B3EB62520ED44FEA2A
:10065000C12343F0004343EA505323FA02F07047AA
:100660004FF00000704750EA013002D14FF0FF30E8
:1006700070474FF0000070474FEA4102B2F1E0438B
:1006800024BFB3F5001CDCF1FE5C0DD901F0004C79
:100690004FEAC0024CEA5070B2F1004F40EB8300C9
:1006A00008BF20F00100704711F0804F21D113F1F5
:1006B0003872BCBF01F00040704741F480114FEA2E
:1006C0005252C2F11802C2F1200C10FA0CF320FAB7
:1006D00002F018BF40F001004FEAC1234FEAD323D4
:1006E00003FA0CFC40EA0C0023FA02F34FEA43033E
:1006F000CCE77FEA625307D150EA01331EBF4FF0C7
:10070000FE4040F44000704701F0004040F0FE40E1
:1007100040F40000704700BF53B94AB9002908BF30
:1007200000281CBF4FF0FF314FF0FF3000F00CB835
:10073000ADF1080C6DE904CE0AF060FADDF804E0D2
:10074000DDE9022304B07047704700BF00000000DD
:100750000000000000000000000000000000000099
:1007600002780B78012A28BF9A4240F0D8806DE9C0
:10077000044540EA0104CDE902676FF0000C4FEA3E
:1007800044721AB380EA010414F0070F6BD100F031
:10079000070420F0070004F0030521F007014FEAE9
:1007A000C505F0E8042314F0040FF1E804670CFA1F
:1007B00005F462EA040266EA04060BD063EA040365
:1007C000624667EA0407664604E000BFF0E80423D7
:1007D000F1E8046782FA4CF582EA0604A4FA8CF484
:1007E0006CBB83FA4CF583EA0705A5FA8CF595B93D
:1007F00050E9022351E9026782FA4CF582EA0604C5
:10080000A4FA8CF483FA4CF583EA0705A5FA8CF573
:100810002543DBD09CB92DBAB5FA85F424F0070442
:1008200027FA04F1DDE9026723FA04F303F0FF007D
:1008300001F0FF01FDE80445A0EB0100704724BA78
:10084000B4FA84F424F0070426FA04F1DDE902671F
:1008500022FA04F202F0FF0001F0FF01FDE8044576
:10086000A0EB0100704714F0030F3CD110F003041B
:1008700028D150F8082B51F8083B82FA4CF582EA4F
:100880000305A5FA8CF55DB950F8042C51F8043C29
:1008900082FA4CF582EA0305A5FA8CF5002DE8D022
:1008A0002DBAB5FA85F424F0070423FA04F122FAEC
:1008B00004F202F0FF0001F0FF01FDE80445A0EBA7
:1008C000010070474FEAC40420F0030050F8082BE1
:1008D00021F0030151F8083B0CFA04F462EA040227
:1008E00063EA0403C9E710F003041DD0A1EB04017F
:1008F00020F00300E40750F8042B06D012D28B78C6
:100900005FFAA2F4E41A06D12BB1CB785FFAB2F405
:10091000E41A00D133B920465DF8104B7047A2EBC2
:100920000300704701F1040150F8042BCC0721F0BB
:10093000030151F8043B48D824D222F07F4482FAC4
:100940004CF594EA1325A5FA8CF50AD165B951F84E
:10095000043B84EA0204B4EB036F0ED150F8042B7D
:10096000EBE74FEA132355E035F07F454DD108788A
:10097000FDE80445C0F1000070474FEA126203F041
:10098000FF0347E002EA1C4482FA4CF594EA13455F
:10099000A5FA8CF50AD165B951F8043B84EA020442
:1009A000B4EB034F0CD150F8042BEBE74FEA1343A1
:1009B00030E015EA1C4528D10B884FEA124229E0A5
:1009C0004FEA124203EA1C4324E002F0FF0482FAD9
:1009D0004CF594EA1365A5FA8CF50AD165B951F87E
:1009E000043B84EA0204B4EB032F09D150F8042B32
:1009F000EBE74FEA13630DE015F0FF0F05D10B682D
:100A00004FEA122223F07F4304E04FF00000FDE89C
:100A10000445704712BA1BBA82FA4CF482EA030406
:100A2000A4FA8CF5B5FA85F402FA04F203FA04F399
:100A30004FEA1260FDE80445A0EB1360704700BF69
:100A4000844641EA000313F003036DD1403A41D3D9
:100A500051F8043B40F8043B51F8043B40F8043B98
:100A600051F8043B40F8043B51F8043B40F8043B88
:100A700051F8043B40F8043B51F8043B40F8043B78
:100A800051F8043B40F8043B51F8043B40F8043B68
:100A900051F8043B40F8043B51F8043B40F8043B58
:100AA00051F8043B40F8043B51F8043B40F8043B48
:100AB00051F8043B40F8043B51F8043B40F8043B38
:100AC00051F8043B40F8043B51F8043B40F8043B28
:100AD000403ABDD2303211D351F8043B40F8043BC8
:100AE00051F8043B40F8043B51F8043B40F8043B08
:100AF00051F8043B40F8043B103AEDD20C3205D3D8
:100B000051F8043B40F8043B043AF9D2043208D0CF
:100B1000D2071CBF11F8013B00F8013B01D30B8841
:100B200003806046704700BF082A13D38B078DD01F
:100B300010F003038AD0C3F10403D21ADB071CBFF1
:100B400011F8013B00F8013B80D331F8023B20F85B
:100B5000023B7BE7043AD9D3013A11F8013B00F894
:100B6000013BF9D20B7803704B7843708B7883701C
:100B70006046704700000000000000000000000018
:100B800030B490F800F020F007016FF0000C10F086
:100B9000070491F820F040F048804FF000046FF017
:100BA0000700D1E9002391F840F000F1080082FA33
:100BB0004CF2A4FA8CF283FA4CF3A2FA8CF34BBBFE
:100BC000D1E9022382FA4CF200F10800A4FA8CF277
:100BD00083FA4CF3A2FA8CF3E3B9D1E9042382FA45
:100BE0004CF200F10800A4FA8CF283FA4CF3A2FA5A
:100BF0008CF37BB9D1E9062301F1200182FA4CF292
:100C000000F10800A4FA8CF283FA4CF3A2FA8CF3F8
:100C1000002BC6D0002A04BF04301A4612BAB2FA1A
:100C200082F200EBD20030BC7047D1E9002304F01F
:100C30000305C4F100004FEAC50514F0040F91F854
:100C400040F00CFA05F562EA05021CBF63EA0503F1
:100C500062464FF00004AAE7000000000000000018
:100C600001F0FF01102A2BDB10F0070F08D010F85D
:100C7000013B013A8B422DD010F0070F42B3F6D161
:100C8000F0B441EA012141EA014122F007047FF07A
:100C900000070023F0E80256083C85EA010586EAD1
:100CA000010685FA47F5A3FA87F586FA47F6A5FA0D
:100CB00087F68EB9EED1F0BC01F0FF0102F0070219
:100CC00032B110F8013B013A83EA010313B1F8D1C4
:100CD0000020704701387047002D06BF35460338A5
:100CE000073815F0010F07D1013015F4807F02BFDE
:100CF000013015F4C03F0130F0BC0138704700BF2F
:100D000070B54FF0FF0C4CF4E06C1CEA11541DBFA1
:100D10001CEA135594EA0C0F95EA0C0F00F0DEF86C
:100D20002C4481EA030621EA4C5123EA4C5350EA51
:100D3000013518BF52EA033541F4801143F48013A2
:100D400038D0A0FB02CE4FF00005E1FB02E506F033
:100D50000042E0FB03E54FF00006E1FB03569CF088
:100D6000000F18BF4EF0010EA4F1FF04B6F5007F8E
:100D700064F5407404D25FEA4E0E6D4146EB060600
:100D800042EAC62141EA55514FEAC52040EA5E5089
:100D90004FEACE2EB4F1FD0C88BFBCF5E06F1ED833
:100DA000BEF1004F08BF5FEA500E50F1000041EB6A
:100DB000045170BD06F0004646EA010140EA020017
:100DC00081EA0301B4EB5C04C2BFD4EB0C0541EA39
:100DD000045170BD41F480114FF0000E013C00F34E
:100DE000AB8014F1360FDEBF002001F0004170BD72
:100DF000C4F10004203C35DA0C341BDC04F114048B
:100E0000C4F1200500FA05F320FA04F001FA05F216
:100E100040EA020001F0004221F0004110EBD370E3
:100E200021FA04F642EB06015EEA430E08BF20EA0F
:100E3000D37070BDC4F10C04C4F1200500FA04F3B2
:100E400020FA05F001FA04F240EA020001F0004144
:100E500010EBD37041F100015EEA430E08BF20EAB7
:100E6000D37070BDC4F1200500FA05F24EEA020EFF
:100E700020FA04F301FA05F243EA020321FA04F02E
:100E800001F0004121FA04F220EA020000EBD370E5
:100E90005EEA430E08BF20EAD37070BD94F0000FE5
:100EA0000FD101F00046400041EB010111F4801F19
:100EB00008BF013CF7D041EA060195F0000F18BFCA
:100EC000704703F00046520043EB030313F4801F06
:100ED00008BF013DF7D043EA0603704794EA0C0FC0
:100EE0000CEA135518BF95EA0C0F0CD050EA4106D6
:100EF00018BF52EA4306D1D181EA030101F0004153
:100F00004FF0000070BD50EA410606BF104619467A
:100F100052EA430619D094EA0C0F02D150EA013686
:100F200013D195EA0C0F05D152EA03361CBF1046C7
:100F300019460AD181EA030101F0004141F0FE4166
:100F400041F470014FF0000070BD41F0FE4141F4EA
:100F5000780170BD70B54FF0FF0C4CF4E06C1CEAEA
:100F600011541DBF1CEA135594EA0C0F95EA0C0F9F
:100F700000F0A7F8A4EB050481EA030E52EA03355A
:100F80004FEA013100F088804FEA03334FF080557B
:100F900045EA131343EA12634FEA022245EA1115A8
:100FA00045EA10654FEA00260EF000419D4208BF59
:100FB000964244F1FD0404F5407402D25B084FEA06
:100FC0003202B61A65EB03055B084FEA32024FF4B2
:100FD00080104FF4002CB6EB020E75EB030E22BF0F
:100FE000B61A754640EA0C005B084FEA3202B6EBCF
:100FF000020E75EB030E22BFB61A754640EA5C007E
:101000005B084FEA3202B6EB020E75EB030E22BF0D
:10101000B61A754640EA9C005B084FEA3202B6EB0E
:10102000020E75EB030E22BFB61A754640EADC00CD
:1010300055EA060E18D04FEA051545EA16754FEA2F
:1010400006164FEAC30343EA52734FEAC2025FEA4D
:101050001C1CC0D111F4801F0BD141EA00014FF0DC
:1010600000004FF0004CB6E711F4801F04BF0143AD
:101070000020B4F1FD0C88BFBCF5E06F3FF6AFAEC9
:10108000B5EB030C04BFB6EB020C5FEA500C50F159
:10109000000041EB045170BD0EF0004E4EEA1131DC
:1010A00014EB5C04C2BFD4EB0C0541EA045170BDE3
:1010B00041F480114FF0000E013C90E645EA060E27
:1010C0008DE60CEA135594EA0C0F08BF95EA0C0F55
:1010D0003FF43BAF94EA0C0F0AD150EA01347FF49D
:1010E00034AF95EA0C0F7FF425AF104619462CE774
:1010F00095EA0C0F06D152EA03353FF4FDAE1046D7
:10110000194622E750EA410618BF52EA43067FF427
:10111000C5AE50EA41047FF40DAF52EA43057FF4B7
:10112000EBAE12E74FF0FF3C06E000BF4FF0010CC2
:1011300002E000BF4FF0010C4DF804CD4FEA410C26
:101140007FEA6C5C4FEA430C18BF7FEA6C5C1BD0F3
:1011500001B050EA410C0CBF52EA430C91EA030F74
:1011600002BF90EA020F0020704710F1000F91EAD1
:10117000030F58BF994208BF90422CBFD8176FEA9F
:10118000E37040F0010070474FEA410C7FEA6C5C6D
:1011900002D150EA013C07D14FEA430C7FEA6C5C74
:1011A000D6D152EA033CD3D05DF8040B704700BFA0
:1011B0008446104662468C461946634600E000BFEE
:1011C00001B5FFF7B7FF002848BF10F1000F01BDC0
:1011D0004DF808EDFFF7F4FF0CBF012000205DF88B
:1011E00008FB00BF4DF808EDFFF7EAFF34BF012010
:1011F00000205DF808FB00BF4DF808EDFFF7E0FFA9
:1012000094BF012000205DF808FB00BF4DF808EDF9
:10121000FFF7CEFF94BF012000205DF808FB00BF60
:101220004DF808EDFFF7C4FF34BF012000205DF842
:1012300008FB00BF4FEA410C7FEA6C5C02D150EA28
:10124000013C0AD14FEA430C7FEA6C5C02D152EABE
:10125000033C02D14FF0000070474FF0010070478F
:101260004FEA410212F5001215D211D56FF47873CE
:10127000B3EB625212D94FEAC12343F0004343EA71
:10128000505311F0004F23FA02F018BF404270474C
:101290004FF00000704750EA013005D111F00040D6
:1012A00008BF6FF0004070474FF00000704700BF6C
:1012B0000348044B834202D0034B03B118477047E5
:1012C000EC060024EC060024000000000548064B54
:1012D0001B1AD90F01EBA301491002D0034B03B134
:1012E00018477047EC060024EC06002400000000BC
:1012F00010B5064C237843B9FFF7DAFF044B13B15E
:101300000448AFF300800123237010BDF0060024D1
:10131000000000009C23010808B5054B1BB10549DE
:101320000548AFF30080BDE80840FFF7CFBF00BF1E
:1013300000000000F40600249C23010838B500F0EA
:101340007DFB80B12E4809F0C5FE01252D4B1D7097
:101350002D4C022323702D4809F036FF25702C48B0
:1013600009F0B8FE0AE004462A4809F0B3FE45E059
:101370002E2009F0C3FEC82008F03AFF264B1B7848
:10138000002BF5D0254809F01FFF254809F01CFF68
:101390004FF4FA7008F02CFF1B4C022323702148F5
:1013A00009F012FF012323701F4809F093FE05E0A6
:1013B0002E2009F0A3FEC82008F01AFF1B4B1B7853
:1013C000002BF5D0154809F0FFFE194809F0FCFE86
:1013D0000D4D02232B700421164809F07BFE0A20D4
:1013E00008F006FF1449154809F074FE0A2008F0B9
:1013F000FFFE01242C70124809F0E6FE204638BD9D
:1014000004240108E7070024E80700241024010849
:101410003424010858240108E40700247424010836
:10142000682401087824010894240108E3070024B3
:10143000BC240108D0240108F02401082825010853
:101440002C25010838B50C4640F21123984247D0AC
:1014500040F2132398424DD050284AD14B78454A48
:10146000D371512B52D0532B43D18878CB7840EA9B
:10147000032000B2FFF776F800224FF07C53FFF70D
:101480003FFC00223C4BFFF73BFCFFF7F5F8394DE2
:10149000E8612079637940EA032000B2FFF762F83F
:1014A00000224FF07C53FFF72BFC0022324BFFF75A
:1014B00027FCFFF7E1F8A861A079E37940EA03206F
:1014C00000B2FFF74FF800224FF07C53FFF718FCF3
:1014D0000022294BFFF714FCFFF7CEF8686108E003
:1014E0000A78244B1A704A785A708A789A70CA78A7
:1014F000DA7038BD4B7903F003011E4A1171C3F352
:10150000C0039371E3795A3B5371F2E78B78CA7841
:1015100043EA02231BB207EE903AF8EEE77ADFEDDA
:10152000176A67EEA67AB3EE007A67EE877A114AF9
:10153000C2ED027A0B79497943EA01231BB207EE27
:10154000903AF8EEE77A67EEA67A67EE877AC2ED10
:10155000037AA379E17943EA01231BB207EE903ABB
:10156000F8EEE77A67EEA67A67EE877AC2ED047A3C
:10157000BFE700BF6007002400806640000000381D
:1015800038B50C46B44B984200F0D48073D8A3F51C
:101590009B03A3F51453984200F0F8802CD8AF4B6E
:1015A000984200F0B08003F58013984223D10A7866
:1015B0004B7802EB0322AA4B03EB6203A94D6B8429
:1015C0008B78CA7803EB02232B840B7985F82430BF
:1015D0004B7903F0030385F825308B79C87903EB49
:1015E0000020FEF7BFFF9AA3D3E90023FFF788FB93
:1015F000FFF742F8A86238BD9B4B9842FBD10B78AD
:10160000323B984D85F854304B78323B85F8553055
:101610008B78C87803EB0020FEF7A4FF8CA3D3E9F6
:101620000023FFF76DFBFFF727F8A86523796079A2
:1016300003EB0020FEF796FF85A3D3E90023FFF715
:101640005FFB0022894BFEF73FFEFFF715F8E865C8
:10165000A379E07903EB0020FEF784FF7CA3D3E9B4
:101660000023FFF74DFB0022804BFEF72DFEFFF716
:1016700003F82866BFE77E4B984200F0B38003F57D
:101680008033984200F0FA807A4B9842B3D10B78BD
:10169000323B744D85F846304B78323B85F8473005
:1016A0008B78C87803EB0020FEF75CFF68A3D3E9D2
:1016B0000023FFF725FBFEF7DFFFA864237960799D
:1016C00003EB0020FEF74EFF61A3D3E90023FFF7F1
:1016D00017FB0022654BFEF7F7FDFEF7CDFFE86430
:1016E000A379E07903EB0020FEF73CFF58A3D3E990
:1016F0000023FFF705FB00225C4BFEF7E5FDFEF73C
:10170000BBFF286577E70B784A7803EB0223544A3E
:1017100002EB6302534BDA858A78C97802EB012227
:101720009A85227983F83020627902F0030283F8E7
:10173000312060E70B784A7803EB0223484A02EB3A
:101740006302484B9A868A78C97802EB01225A864E
:10175000227983F83620627902F0010283F837207B
:101760006279C2F3400283F838206179A27992014C
:1017700042EA910283F83920A279D20983F83A200B
:10178000E27902F0030283F83B2034E70B784A78D1
:1017900003EB0223324A02EB6302324BDA878A7888
:1017A000C97802EB01229A87227983F84020627976
:1017B00002F0010283F841206279C2F3400283F80B
:1017C00042206179A279920142EA910283F8432092
:1017D000A279D20983F84420E27902F0030283F867
:1017E000452008E74B78087803EB0020FEF7BAFEA7
:1017F00017A3D3E90023FFF783FA1A4DFEF71CFF66
:10180000A5F86400E378A07803EB0020FEF7AAFEB9
:101810000FA3D3E90023FFF773FA0022164BFEF75C
:1018200053FDC5E91A01237985F87030637985F88D
:101830007130A3791B0985F87230A37903F00F0387
:1018400085F87330E37985F87430D4E6AFF300801F
:101850009A9999999999B93FEFC6FF0C21EFB10870
:10186000F0D8FFFF60070024EF21B30C000099407F
:10187000F3406018EFC7FF0C00408F400A784B78A8
:1018800003EB0223044AA2F876300978637803EB6D
:101890000123A2F87830AEE66007002410B50446B4
:1018A00008280BD0B4F5004F1AD0402C2AD0022CB7
:1018B00039D0202C48D0012C57D010BD08213348F6
:1018C00003F0F2F80028EDD14FF40041304803F066
:1018D000EBF80028E6D12F4A137801331370E1E7C3
:1018E0004FF400412A4803F0DFF80028DDD1082139
:1018F000264803F0D9F80028D7D1264A1378013BAF
:101900001370D2E74021214803F0CEF80028CED151
:101910000221214803F0C8F80028C8D11F4A1378D3
:1019200001331370C3E702211B4803F0BDF8002800
:10193000BFD14021154803F0B7F80028B9D1174AA4
:101940001378013B1370B4E72021154803F0ACF87D
:101950000028B0D10121104803F0A6F80028AAD130
:10196000104A137801331370A5E701210A4803F0E8
:101970009BF80028A1D12021094803F095F8002800
:101980009BD1084A1378013B137096E7000C02586C
:1019900000000258E007002400100258E10700246C
:1019A00000040258E207002470B505460E464FF4C5
:1019B000FA7008F01DFC1B4B02221A7029461A48C7
:1019C00009F088FB4FF4FA7008F012FC002431464D
:1019D000164809F093FEA0B92946134809F07AFB8E
:1019E0004FF4FA7008F004FC0134E4B2042CEED990
:1019F0000C4B01221A7029460D4809F06BFB0020A0
:101A000070BD0124074B1C7029460A4809F062FB8F
:101A100064220021054809F055FC074B00221A708A
:101A20002046EDE7E807002440250108EC070024E4
:101A30004825010854250108E907002438B501228A
:101A40001F49204807F046FF01231F4A13701F4A11
:101A500013701F4809F0B8FB1E4809F0B5FB0024BD
:101A60001D4B1D7875B94FF47A7008F0C1FB2E201C
:101A700009F044FB0134A4B2142CF1D9174809F041
:101A800029FB1BE0164809F09FFB104B00221A703F
:101A90000D4B02221A70134809F096FB12491348A5
:101AA000FFF782FF054612491248FFF77DFF054008
:101AB000EDB211491148FFF777FF0540284638BDC0
:101AC000500800248C0B0024E8070024E7070024BA
:101AD0005C2501086C250108E60700248025010823
:101AE00090250108A0250108A8250108AC250108BA
:101AF000B4250108B8250108C0250108CC25010836
:101B000038B502685C4B9A4200D038BD5B4B1A78FE
:101B1000FF2A11D0531CDBB258490B705849594861
:101B2000007888549A1E8A5C0D2A13D001225549E8
:101B3000554807F0CFFEE8E70021197064225048AD
:101B400009F0C0FB4FF6FF730A225049504807F0D6
:101B500023FDEBE75A1E8A5C0A2AE7D1022BE5D067
:101B60004C4A1278002AE1D05A1E4FF6FF7392B207
:101B7000474807F011FD464807F056F92128FAD0EA
:101B800045493F48FEF7ECFD10B13D4B1B7853B97A
:101B90003B4C64220021204609F094FB012221469F
:101BA000394807F097FE3D49354809F0A7FD68B16F
:101BB00001253B4B1D70324C64220021204609F068
:101BC00081FB2A462146304807F084FE35492C48DF
:101BD00009F094FD68B10125334B1D70284C642237
:101BE0000021204609F06EFB2A462146264807F0D0
:101BF00071FE2E49224809F081FD68B101252C4B68
:101C00001D701F4C64220021204609F05BFB2A4610
:101C100021461D4807F05EFE2649194809F06EFD71
:101C200068B10125244B1D70154C6422002120460B
:101C300009F048FB2A462146134807F04BFE1F498E
:101C40000F4809F05BFD90B10021154B1970164B40
:101C50001970174B1970184B1970094C64222046E3
:101C600009F030FB01222146074807F033FE034B01
:101C700000221A705AE700BF00480040E90700241C
:101C8000EC070024500800248C0B0024D825010800
:101C9000200C0024E7070024E4250108E8250108BA
:101CA000E6070024EC250108E4070024F4250108D8
:101CB000E3070024FC250108E507002404260108A9
:101CC00008B50021014806F0ABFC08BD400B00241C
:101CD00011F0010F2FD010B582B00446164B984278
:101CE00004D0164B9C4213D002B010BD6B46144A70
:101CF000402102F03BFB0028F3D16946104B1868E5
:101D0000FFF73EFC0F210F4B186808F07FFAE8E759
:101D10006B460D4A4021204602F028FB0028E3D103
:101D20006946094B1868FFF78DFB0F21054B1868B2
:101D300008F06CFAD8E77047F80800245808002427
:101D400034070024E80900240C07002400B583B000
:101D50000B4BD3F8D82042F00102C3F8D820D3F8B7
:101D6000D83003F001030193019B002205210B20D1
:101D700001F092F80B2001F09FF803B05DF804FB2E
:101D80000044025808B51648164B036000238360D0
:101D9000C36003744374837414224261012282611C
:101DA0000221C161016242628262C26202634363D4
:101DB0008363C26320220264042242648364C26497
:101DC000036542658365C3651021016643668266CB
:101DD00002F082F900B908BD00F0BBFAFBE700BFD2
:101DE000F808002400A0004008B51748174B03600E
:101DF00000238360C36003744374837414224261BC
:101E0000012282610221C161016242628262C26278
:101E100002634FF4057141638363C263202202644D
:101E2000042242648364C264036542658365C365BA
:101E3000102101664366826602F04EF900B908BDC2
:101E400000F087FAFBE700BF5808002400A4004018
:101E500010B5BAB0044600213591369137913891CA
:101E60003991C02204A809F02DFA2368474A934209
:101E700004D0474A934245D03AB010BD4FF40042D7
:101E80000023CDE9042304A803F0A0FD48BB414A88
:101E9000136801331360012B26D03F4BD3F8E020A9
:101EA00042F00202C3F8E020D3F8E03003F002036E
:101EB0000193019B4FF44073359302233693002422
:101EC000379438940923399335A9344802F0DCFC5F
:101ED00022460521132000F0DFFF132000F0ECFF65
:101EE000CAE700F036FAD2E72B4BD3F8EC2042F4E5
:101EF0008072C3F8EC20D3F8EC3003F480730093C5
:101F0000009BCAE74FF400420023CDE9042304A854
:101F100003F05CFD48BB1F4A136801331360012BBB
:101F200026D01D4BD3F8E02042F00202C3F8E02097
:101F3000D3F8E03003F002030393039B4FF44053C4
:101F40003593022336930024379438940923399328
:101F500035A9124802F098FC22460521142000F011
:101F60009BFF142000F0A8FF86E700F0F2F9D2E70B
:101F7000094BD3F8EC2042F48072C3F8EC20D3F87C
:101F8000EC3003F480730293029BCAE700A0004088
:101F900000A40040540800240044025800040258E1
:101FA0002DE9F041B8B00023339334933593369341
:101FB0003793234B1B6813B138B0BDE8F081204B39
:101FC00001221A6002ACC0220021204609F07AF9F1
:101FD0004FF080720023CDE90223204603F0F6FC87
:101FE00058BB184BD3F8D42042F48052C3F8D42005
:101FF000D3F8D43003F480530193019B4FF68873D8
:1020000033934FF00208CDF8D08000273597032690
:1020100036960C25379533AC21460B4802F034FC3C
:102020004CF2B3733393CDF8D0803597369637950D
:102030002146064802F028FCBEE700F08AF9D0E706
:10204000980900240044025800100258000C02585D
:10205000F0B58FB007A9002307934B608B60CB606E
:102060000B614B618B616A4600930193029303936A
:102070000493059306931B481B4C046004F582747B
:1020800044608360C3600361102444618361C36161
:1020900003624FF48055456283624FF48045C56208
:1020A000036343638363C36303644FF0020CCDF89F
:1020B0001CC00F2708970426099601250A950B9442
:1020C00011230C93CDF800C0019702960395049458
:1020D000059305F069FD08B90FB0F0BD00F039F9BE
:1020E000FAE700BF9C0900240040005208B5FFF742
:1020F00057FF08BD2DE9F0478CB007AD00240794C9
:10210000089409940A940B94604BD3F8E02042F0B1
:102110001002C3F8E020D3F8E02002F01002019290
:10212000019AD3F8E02042F00402C3F8E020D3F88B
:10213000E02002F004020292029AD3F8E02042F07A
:102140008002C3F8E020D3F8E02002F0800203927E
:10215000039AD3F8E02042F00202C3F8E020D3F85B
:10216000E02002F002020492049AD3F8E02042F048
:102170000802C3F8E020D3F8E02002F0080205923C
:10218000059AD3F8E02042F00102C3F8E020D3F82A
:10219000E03003F001030693069BDFF8F880224647
:1021A0004FF44051404602F086FC70230793089498
:1021B00001260996DFF8E0902946484602F064FBC4
:1021C0004FF440530793089609944FF0030ACDF853
:1021D00028A02946404602F057FB4FF400430793DE
:1021E0004FF40417089709962946294802F04CFB3A
:1021F00048230793089709962946404602F044FB76
:10220000D023079308940996A8F50068294640460C
:1022100002F03AFB20230793089709962946404687
:1022200002F032FBCDF81CA00897099629464846D3
:1022300002F02AFB22460521062000F02DFE062092
:1022400000F03AFE22460521072000F025FE072077
:1022500000F032FE22460521092000F01DFE092073
:1022600000F02AFE22460521172000F015FE172057
:1022700000F022FE22460521282000F00DFE282035
:1022800000F01AFE0CB0BDE8F08700BF0044025811
:1022900000000258000C02580010025808B5084807
:1022A000084B03600323436040F6FF73C360836001
:1022B00002F016FC00B908BD00F04BF8FBE700BFC8
:1022C000EC0900240048005870B584B00024009444
:1022D00001940294039400F0F3FD01268DF8006050
:1022E0008DF801404FF0C04301931B238DF8083057
:1022F0008DF809408DF80A4003238DF80B308DF8D6
:102300000C408DF80D408DF80E408DF80F6068463A
:1023100000F0F4FD8DF801604FF01053019312238B
:102320008DF808308DF809408DF80A608DF80F405F
:10233000684600F0E3FD042000F0D0FD04B070BD5D
:1023400008B50368B3F1804F00D008BD00F026FD4A
:10235000FBE772B6FEE7000000B59DB04C220021FD
:1023600009A808F0AFFF2022002101A808F0AAFF69
:10237000022002F0EBFB00230093284B9A6942F401
:1023800040429A619B6903F440430093244BDA6A0C
:1023900042F00102DA62DB6A03F001030093009B62
:1023A0001E4B9B6913F4005FFAD0092309934FF485
:1023B00080330A9301230E93022312931393052271
:1023C0001492C02215921693042317930623189390
:1023D0000823199300231A931B9309A802F0E0FB2A
:1023E000B8B93F23019303230293002303930823E7
:1023F00004934023059306934FF480620792089359
:1024000004210DEB010003F01FF820B91DB05DF8A9
:1024100004FBFFF79EFFFFF79CFF00BF0048025838
:102420000004005808B5FFF74FFF344B5B6913F405
:10243000003F13D1BFF34F8FBFF36F8F2F4B00229D
:10244000C3F85022BFF34F8FBFF36F8F5A6942F426
:1024500000325A61BFF34F8FBFF36F8F274B5B6919
:1024600013F4803F27D1254B0022C3F88420BFF30B
:102470004F8FD3F880C0CCF34E3000E01846CCF339
:10248000C90243F6E07303EA401343EA82731B492F
:10249000C1F860321346013A002BF2D1431E0028E6
:1024A000ECD1BFF34F8F4B6943F480334B61BFF3E3
:1024B0004F8FBFF36F8F00F043FCFFF74DFFFFF727
:1024C00019FEFFF743FC00F0A1FA00F01BFBFFF739
:1024D00059FCFFF789FCFFF7BBFDFFF7DFFEFFF7B5
:1024E000ADFAFEF72BFF00F00DF8054808F06CFE82
:1024F0004FF47A7000F064FCF7E700BF00ED00E0F5
:102500000C26010808B50A480A4B03600023436003
:1025100083604FF48042C2604FF400320261436135
:1025200005F0E5FA00B908BDFFF713FFFBE700BFB0
:10253000FC090024007000522DE9F041BAB00446B5
:10254000002135913691379138913991C02204A8F4
:1025500008F0B8FE22682B4B9A4202D03AB0BDE890
:10256000F0814FF480320023CDE9042304A803F066
:102570002DFA002842D1244BD3F8D42042F48032E3
:10258000C3F8D420D3F8D42002F480320192019A07
:10259000D3F8E02042F00402C3F8E020D3F8E020B2
:1025A00002F004020292029AD3F8E02042F00802FC
:1025B000C3F8E020D3F8E03003F008030393039B53
:1025C0004FF4F85335934FF00208CDF8D880002728
:1025D0003797032638960C25399535AC21460B489C
:1025E00002F052F904233593CDF8D8803797389606
:1025F00039952146064802F047F9AFE7FFF7A9FEF3
:10260000B9E700BF007000520044025800080258A9
:10261000000C025800B583B00A4BD3F8F42042F006
:102620000202C3F8F420D3F8F43003F0020301935C
:10263000019B00220F216FF0010000F02DFC03B080
:102640005DF804FB004402580F2801D901207047AF
:1026500010B58AB00446002201461C2000F01CFC84
:102660001C2000F029FC1B4B1C601B4BD3F8E820FE
:1026700042F00102C3F8E820D3F8E83003F0010388
:102680000093009B01A902A803F06EF8079BC3B951
:1026900003F046F80346114AA2FB03239B0C013BBF
:1026A0000F484FF08042026040F2E732C260436060
:1026B00000230361836005F0B3FD30B101200AB04F
:1026C00010BD03F02DF84300E5E7054805F01CFCBC
:1026D000F5E700BF0C0000240044025883DE1B43D2
:1026E000780A0024FEE7FEE7FEE7FEE7FEE7704714
:1026F00008B5012002F0E5F908BD08B5022002F096
:10270000E0F908BD08B5082002F0DBF908BD0000BB
:1027100008B5024801F05CF808BD00BFC80A0024F3
:1027200008B5024801F020FF08BD00BFF8080024EA
:1027300008B5024801F018FF08BD00BF5808002482
:1027400008B5202002F0BDF9402002F0BAF908BD1A
:1027500008B5024805F024FC08BD00BF780A002433
:1027600008B54FF4004002F0ACF908BD01207047F5
:1027700008B509F0C3F8162303604FF0FF3008BD19
:1027800008B54FF0FF31FFF7F3FFFEE770B50C46D9
:102790001646002506E0AFF30080214601F8010B44
:1027A00001350C46B542F6DB304670BD70B50C46BF
:1027B0001646002504E014F8010BAFF30080013544
:1027C000B542F8DB304670BD4FF0FF3070474FF434
:1027D00000534B6000207047012070470020704775
:1027E00010B503460C4A0D490D48006840B10C482D
:1027F00000680344521A934206D8094A136010BD78
:102800000748084C0460F2E709F078F80C230360ED
:102810004FF0FF30F3E700BF00000824000800007D
:10282000C40A002490140024314AD2F8883043F4BA
:102830007003C2F888302F4B1B6803F00F03062B80
:1028400006D82C4A136823F00F0343F007031360E4
:10285000294B1A6842F001021A6000221A611968B5
:10286000264A0A401A60234B1B6813F0080F06D053
:10287000204A136823F00F0343F0070313601E4B35
:1028800000229A61DA611A621D4999621D49D96272
:102890001D4919635A639963DA6319645A641968A4
:1028A00021F4802119601A66184B1B686FF30F031F
:1028B000B3F1005F03D2164B0122C3F808210E4B7F
:1028C000D3F8D43013F4805F10D10B4BD3F8D4205D
:1028D00042F48052C3F8D4200E4A43F2D201116070
:1028E000D3F8D42022F48052C3F8D420704700BF1C
:1028F00000ED00E000200052004402587FEDF6EAAF
:10290000000202020000FF01800201010010005CD1
:102910000080005100400052054AD36843F0020392
:10292000D360034B5B6813F4005FFAD0704700BFBD
:102930000048025802681A4B9A4200D0704710B5FE
:1029400082B00446174BD3F8F02042F00102C3F8DE
:10295000F020D3F8F03003F001030193019B1248FB
:10296000124B03600B234360402383600023C3604A
:102970004FF4806202614FF4006242614FF40052F2
:102980008261C3610362436200F01AFC20B9064B06
:1029900063629C6302B010BDFFF7DBFCF7E700BF8A
:1029A0000000014000440258C80A00241000024000
:1029B00000B587B00023019302930393049305931A
:1029C00002680F4B9A4202D007B05DF804FB0D4B32
:1029D000D3F8E02042F00102C3F8E020D3F8E03061
:1029E00003F001030093009B4FF4807301930223D3
:1029F00002930123059301A9034801F045FFE3E792
:102A000000000140004402580000025810B59AB07E
:102A100000241694179418941994139414941594EC
:102A20000C940D940E940F941094119412942C22E3
:102A3000214601A808F046FC3048314B0360446051
:102A4000846040F22B13C36004614461846105F02B
:102A5000E7FB00283FD14FF48053169316A927486F
:102A600005F032FD002839D1244805F009FC002882
:102A700037D1002313931493159313A91F4805F01E
:102A800067FE002830D160230C9300220D920E9235
:102A90000F921092119212920CA9184805F06AFC3C
:102AA00028BB0023019302930393049305934FF4EF
:102AB00000520692079308934FF0007209920A930E
:102AC0000B9301A90D4805F093FE98B90B48FFF749
:102AD0006FFF1AB010BDFFF73CFCBCE7FFF739FCF5
:102AE000C2E7FFF736FCC4E7FFF733FCCBE7FFF79D
:102AF00030FCD6E7FFF72DFCE8E700BF400B0024D1
:102B00000000014008B51748174B03604FF4E1235C
:102B1000436000238360C36003610C2242618361D0
:102B2000C36103624362836206F003FE70B9002151
:102B30000C4806F03AFF60B900210A4806F05AFF37
:102B400050B9084806F012FF48B908BDFFF701FC6C
:102B5000EDE7FFF7FEFBEFE7FFF7FBFBF1E7FFF722
:102B6000F8FBF2E78C0B00240048004010B5BCB025
:102B7000044600213791389139913A913B91C02216
:102B800006A808F09FFB2368514A934207D0514A98
:102B9000934237D0504A934267D03CB010BD0122D7
:102BA0000023CDE9062306A802F010FF38BB4B4BEB
:102BB000D3F8F02042F01002C3F8F020D3F8F02050
:102BC00002F010020092009AD3F8E02042F00202D4
:102BD000C3F8E020D3F8E03003F002030193019B37
:102BE0004FF44043379302233893002339933A93A9
:102BF00004233B9337A93A4801F046FECDE7FFF79F
:102C0000A8FBD4E702220023CDE9062306A802F0A0
:102C1000DDFE38BB314BD3F8E82042F48022C3F804
:102C2000E820D3F8E82002F480220292029AD3F836
:102C3000E02042F00202C3F8E020D3F8E03003F0D5
:102C400002030393039B4FF44063379302233893AB
:102C5000002339933A9307233B9337A9204801F087
:102C600013FE9AE7FFF775FBD4E701220023CDE9B5
:102C7000062306A802F0AAFE30BB184BD3F8F020BA
:102C800042F02002C3F8F020D3F8F02002F0200236
:102C90000492049AD3F8E02042F00402C3F8E02042
:102CA000D3F8E03003F004030593059BC02337936A
:102CB00002233893002339933A9307233B9337A990
:102CC000084801F0E1FD68E7FFF743FBD5E700BFE7
:102CD0000010014000480040001401400044025828
:102CE0000004025800080258DFF838D0FFF714FE3D
:102CF000FFF79AFD0C480D490D4A002302E0D45815
:102D0000C4500433C4188C42F9D30A4A0A4C002335
:102D100001E013600432A242FBD308F0F5FDFFF797
:102D200081FB70470000082400000024EC0600240A
:102D3000682A0108F006002490140024FEE7000031
:102D400010B5032000F096F802F082FA0F498B6963
:102D5000C3F303230E4AD35C03F01F03D8408B69EF
:102D600003F00F03D35C03F01F0320FA03F3094AB7
:102D70001360094B18600F20FFF766FC10B10124A7
:102D8000204610BD0446FFF745FCF9E70044025811
:102D9000C02701080000002404000024034B1B7816
:102DA000034A11680B441360704700BF08000024F9
:102DB000B40C0024014B1868704700BFB40C002409
:102DC00038B50446FFF7F6FF0546B4F1FF3F02D0E1
:102DD000044B1B781C44FFF7EDFF401BA042FAD3C5
:102DE00038BD00BF08000024014B1868000C704774
:102DF0000010005C002807DB00F01F0240090123DF
:102E00009340024A42F82030704700BF00E100E0E2
:102E1000002804DB0901C9B2044B1954704700F0C3
:102E20000F000901C9B2024B1954704700E400E0D9
:102E300014ED00E000B500F00700C0F1070CBCF194
:102E4000040F28BF4FF0040C031D062B0FD9C31E1F
:102E50004FF0FF3E0EFA0CF021EA000199400EFA05
:102E600003FE22EA0E0241EA02005DF804FB0023A1
:102E7000EEE700000649CB6823F4E0631B041B0C5B
:102E8000000200F4E0600343024A1A43CA6070473C
:102E900000ED00E00000FA0510B50446054BD868C7
:102EA000C0F30220FFF7C6FF01462046FFF7B0FF40
:102EB00010BD00BF00ED00E008B5FFF79BFF08BDA7
:102EC000BFF35F8F044B5A6A22F480325A620022A9
:102ED000C3F89420704700BF00ED00E040F001000F
:102EE000054BC3F894005A6A42F480325A62BFF329
:102EF0004F8FBFF36F8F704700ED00E04378144AA7
:102F0000C2F89830D2F8A03023F00103C2F8A03004
:102F10004368C2F89C30017BC37A1B0643EA017305
:102F2000817A43EAC143417B43EA8143817B43EA9F
:102F30004143C17B43EA0143417A43EA0123017AD9
:102F400043EA410301780B43C2F8A030704700BF49
:102F500000ED00E003682749274A934218BF8B42DF
:102F60002FD0183293422CD01832934229D01832E5
:102F7000934226D01832934223D01832934220D065
:102F8000183293421DD002F55672934219D018326E
:102F9000934216D01832934213D01832934210D075
:102FA000183293420DD0183293420AD0183293420D
:102FB00007D01832934204D023F0FF038365806D5D
:102FC000704710B4D9B210390C4AA2FB0142C2F3C7
:102FD00002120B4CA25CC2655F2907D96FF309038B
:102FE00004338365806D5DF8044B70476FF309030C
:102FF0008365F7E71000024028000240ABAAAAAAA6
:10300000D027010883699BB9836A012B0AD0022B60
:1030100002D00BB100207047C36A13F0807F2AD121
:1030200000207047C36AB3F1C07F26D000207047EC
:10303000B3F5005F0AD0836A022B26D9032B26D171
:10304000C36A13F0807F24D100207047836A032B6A
:1030500003D8DFE803F01404140A00207047C36AA1
:1030600013F0807F0DD100207047C36AB3F1C07F99
:1030700009D00020704701207047012070470120CF
:1030800070470120704701207047012070470020E1
:10309000704701207047000003682149214A93428C
:1030A00018BF8B4227D01432934224D0143293425B
:1030B00021D0143293421ED0143293421BD01432CA
:1030C000934218D01432934215D0DAB2103A16490E
:1030D000A1FB0212120915491944A8291ED9144B43
:1030E00013449B000366134B436602F01F02012347
:1030F000934083667047DBB2083B0F4AA2FB032371
:103100000E4A02EB1312920002660D4A4266C3F3A6
:103110000413012202FA03F3836670470832DEE7E4
:10312000085402581C540258ABAAAAAAF0FBFDBFCF
:103130000082001080080240CDCCCCCC0096001656
:103140008058025801794A1E072A2BD830B40368E8
:10315000154D164CA34218BFAB4218D01434A342ED
:1031600015D01434A34212D01434A3420FD0143417
:10317000A3420CD01434A34209D01434A34206D085
:103180000B4B0B449B00C3660A4B036705E00A4BDD
:103190000B449B00C366094B0367012393404367BD
:1031A00030BC7047704700BF085402581C54025886
:1031B0003F820010400902403F96001640590258D5
:1031C00070B50446FFF7F6FD002C00F0B981054606
:1031D00023685349534A934218BF8B420CBF0121C5
:1031E000002150D0183293424DD0183293424AD029
:1031F0001832934247D01832934244D01832934247
:1032000041D0183293423ED002F5567293423AD0E2
:103210001832934237D01832934234D01832934246
:1032200031D0183293422ED0183293422BD018321C
:10323000934228D01832934225D03B493B4A9342CF
:1032400018BF8B4200F03481394A934200F030813C
:103250001432934200F02C811432934200F0288102
:103260001432934200F024811432934200F0208102
:103270001432934200F01C8140236365032384F8D9
:10328000353001204AE0022284F83520002284F8FB
:10329000342079BB274A93422CD01832934229D04C
:1032A0001832934226D01832934223D018329342D8
:1032B00020D0183293421DD002F55672934219D095
:1032C0001832934216D01832934213D018329342D8
:1032D00010D0183293420DD0183293420AD01832CF
:1032E000934207D01832934204D01A6822F00102A8
:1032F0001A6003E01A6822F001021A6023681A6853
:1033000012F0010F18D0FFF755FD431B052BF5D91F
:1033100020236365032384F83530012070BD00BF8E
:103320001000024028000240085402581C54025861
:1033300030540258400002401A6882491140A26885
:10334000E06802432069024360690243A0690243C6
:10335000E0690243206A02430A43616A042900F0DB
:103360009880794909686FF30F01B1F1005F10D3BC
:1033700061682E2940F2928052290AD83F2908D349
:103380003F39724820FA01F111F0010F01D042F4E7
:1033900080121A602668756925F00705636A1D4367
:1033A000042B08D1A36A1D43E36A23B12046FFF72B
:1033B00029FE002876D175612046FFF7CBFDE36D2D
:1033C00003F01F023F239340836023686049614AF2
:1033D000934218BF8B4242D0183293423FD01832EA
:1033E00093423CD01832934239D01832934236D0AF
:1033F0001832934233D01832934230D002F55672CD
:1034000093422CD01832934229D01832934226D0BE
:103410001832934223D01832934220D0183293426C
:103420001DD0183293421AD01832934217D04A4A0C
:10343000934214D01432934211D0143293420ED0DE
:10344000143293420BD01432934208D01432934278
:1034500005D01432934202D01432934213D1204645
:10346000FFF71AFEA368802B5DD0236E22791A60C5
:10347000636EA26E5A606368013B072B56D9002326
:10348000E3662367636700206065012384F83530B5
:1034900044E7E16A206B01430A4362E72929FFF40C
:1034A00078AF74E740236365012084F8350035E781
:1034B000022284F83520002284F8342019686FF342
:1034C0001011A268402A2CD0802A27D00022E06860
:1034D00042EAD002206942EAD002606942EAD002A0
:1034E000A06942EAD002E06942EAD002206A42EAD8
:1034F00010120A431A602268184B1344184AA2FBA0
:1035000003231B099B00E3652046FFF723FDE26DC3
:1035100002F01F0101228A40426056E74FF48042C8
:10352000D5E71022D3E7002363609EE72046FFF72C
:1035300009FEE36E00221A60236F626F5A60A2E7F1
:103540000120EBE63F8010FE0010005C0F030F002F
:10355000100002402800024008540258F8ABFDA7B2
:10356000CDCCCCCC002800F0278108B5024690F8DD
:103570003530022B03D080234365012008BD03684A
:103580008F4890498B4218BF83420CBF0120002016
:1035900065D018318B4262D018318B425FD0183120
:1035A0008B425CD018318B4259D018318B4256D0A7
:1035B00018318B4253D001F556718B424FD01831E0
:1035C0008B424CD018318B4249D018318B4246D0B7
:1035D00018318B4243D018318B4240D018318B4286
:1035E0003DD018318B423AD0196821F00E01196094
:1035F0001368734873498B4218BF83426AD072497B
:103600008B4267D018318B4264D018318B4261D025
:1036100018318B425ED018318B425BD018318B420F
:1036200058D001F556718B4254D018318B4251D08D
:1036300018318B424ED018318B424BD018318B420F
:1036400048D018318B4245D018318B4242D01831C6
:103650008B423FD0196821F0010119603EE004213E
:1036600082F8351080BB584A93422DD018329342CD
:103670002AD01832934227D01832934224D01832DD
:10368000934221D0183293421ED002F556729342D3
:103690001AD01832934217D01832934214D01832ED
:1036A000934211D0183293420ED0183293420BD06D
:1036B0001832934208D01832934205D01A6822F08B
:1036C00001021A60002059E71A6822F001021A600C
:1036D000002053E7196821F0010119601368384888
:1036E00038498B4218BF834242D018318B423FD0B9
:1036F00018318B423CD018318B4239D018318B4273
:1037000036D018318B4233D018318B4230D001F58E
:1037100056718B422CD018318B4229D018318B42F4
:1037200026D018318B4223D018318B4220D018314B
:103730008B421DD018318B421AD018318B4217D0D2
:1037400022498B4214D014318B4211D014318B4258
:103750000ED014318B420BD014318B4208D014316F
:103760008B4205D014318B4202D014318B4217D1D9
:10377000116E0B6823F480730B60906DD36D03F0B2
:103780001F0101238B404360536E916E5960D36ECD
:1037900033B1196821F480711960136F516F59604A
:1037A000012382F83530002382F83430136D2BB1B9
:1037B000104698470020E1E6012070470020DDE632
:1037C0001000024028000240400002400854025805
:1037D000F0B583B00446002301937D4B1D687D4BFB
:1037E000A3FB0535AD0A876D3E68D7F800C00368B6
:1037F00079497A48834218BF8B420CBF01200020D0
:1038000061D0774A93425ED0183293425BD018322F
:10381000934258D01832934255D01832934252D026
:10382000183293424FD002F5567293424BD0183261
:10383000934248D01832934245D01832934242D036
:10384000183293423FD0183293423CD01832934200
:1038500039D01832934236D06249634A934218BF36
:103860008B4212D0614A93420FD0143293420CD053
:103870001432934209D01432934206D01432934248
:1038800003D01432934240F05F821A68E16D01F078
:103890001F010420884010EA0C0F00F0A58212F0EE
:1038A000040F00F0A182786012F4004F00F05882FB
:1038B00012F4803F40F04E82A36C002B00F0448253
:1038C0002046984740E2E26D02F01F0108228A403C
:1038D000324241D070BB424A93422BD018329342BD
:1038E00028D01832934225D01832934222D0183271
:1038F00093421FD0183293421CD002F55672934265
:1039000018D01832934215D01832934212D0183280
:1039100093420FD0183293420CD01832934209D000
:103920001832934206D01832934203D01A68C2F379
:10393000C00202E01A68C2F380026AB11A6822F07B
:1039400004021A60E36D03F01F0208239340BB607A
:10395000636D43F001036365E26D02F01F0226FA16
:1039600002F313F0010F47D023681B481B498B4219
:1039700018BF83423CD018318B4239D018318B426A
:1039800036D018318B4233D018318B4230D01831B9
:103990008B422DD018318B422AD001F556718B42C3
:1039A00026D018318B4223D018318B4220D01831C9
:1039B0008B421DD018318B421AD018318B4217D050
:1039C00018318B4214D018318B4211D01B6813E090
:1039D00004000024B5814E1B100002402800024064
:1039E00040000240085402581C54025830540258F7
:1039F0005B6913F0800F3BD1E36D03F01F030422DA
:103A000002FA03F333423FD02268954895498A422F
:103A100018BF824234D018318A4231D018318A42DC
:103A20002ED018318A422BD018318A4228D0183132
:103A30008A4225D018318A4222D001F556718A4235
:103A40001ED018318A421BD018318A4218D0183142
:103A50008A4215D018318A4212D018318A420FD0CA
:103A600018318A420CD018318A4209D013680BE011
:103A700001239340BB60636D43F002036365BBE7C2
:103A8000126812F0020F3DD1E36D03F01F03102204
:103A900002FA03F333425FD02268714871498A42C7
:103AA00018BF824234D018318A4231D018318A424C
:103AB0002ED018318A422BD018318A4228D01831A2
:103AC0008A4225D018318A4222D001F556718A42A5
:103AD0001ED018318A421BD018318A4218D01831B2
:103AE0008A4215D018318A4212D018318A420FD03A
:103AF00018318A420CD018318A4209D01268C2F3B8
:103B0000800208E0BB60636D43F004036365BBE7BC
:103B10001268C2F3C002FAB1BB6023681A6812F4DB
:103B2000802F0DD01B6813F4002F04D1236C9BB1A0
:103B30002046984710E0A36C73B1204698470BE0ED
:103B40001A6812F4807F03D11A6822F008021A6002
:103B5000236C0BB120469847E36D03F01F0320222E
:103B600002FA03F3334200F0918022683C483D4959
:103B70008A4218BF82422ED018318A422BD0183187
:103B80008A4228D018318A4225D018318A4222D060
:103B900018318A421FD018318A421CD001F5567163
:103BA0008A4218D018318A4215D018318A4212D070
:103BB00018318A420FD018318A420CD018318A420B
:103BC00009D018318A4206D018318A4203D01268CF
:103BD000C2F3400202E01268C2F30012002A55D07C
:103BE000BB6094F83530042B0ED023681A6812F4A9
:103BF000802F39D01B6813F4002F2CD1636C002B5D
:103C000044D02046984741E02268136823F0160309
:103C100013602268536923F080035361236CB3B1AE
:103C20002268136823F008031360E36D03F01F029A
:103C30003F239340BB60012384F83530002384F890
:103C40003430236D002B7FD0204698477CE0A36C56
:103C5000002BE5D1E9E7E36BC3B12046984715E0B7
:103C600010000240280002401A6812F4807F09D137
:103C70001A6822F010021A60012384F835300023FC
:103C800084F83430E36B0BB120469847636D002B0A
:103C90005AD0636D13F0010F52D0042384F83530ED
:103CA00023689649964A934218BF8B422FD0183208
:103CB00093422CD01832934229D01832934226D006
:103CC0001832934223D01832934220D018329342B4
:103CD0001DD002F55672934219D01832934216D075
:103CE0001832934213D01832934210D018329342B4
:103CF0000DD0183293420AD01832934207D01832AE
:103D0000934204D01A6822F001021A6003E01A6894
:103D100022F001021A60019B01330193AB4204D8E7
:103D200023681B6813F0010FF5D123681B6813F09B
:103D3000010F0BD0032384F83530002384F834308E
:103D4000E36C0BB12046984703B0F0BD012384F823
:103D50003530F2E7236C002BF6D020469847F3E786
:103D600012F0200F3AD123686449654A934218BF84
:103D70008B422FD0183293422CD01832934229D044
:103D80001832934226D01832934223D018329342ED
:103D900020D0183293421DD002F55672934219D0AA
:103DA0001832934216D01832934213D018329342ED
:103DB00010D0183293420DD0183293420AD01832E4
:103DC000934207D01832934204D01A6822F00402BA
:103DD0001A6003E01A6822F008021A60236C002BB4
:103DE000B2D020469847AFE70220884010EA0C0F77
:103DF00060D012F0020F5DD0786012F4004F0ED048
:103E000012F4803F05D1636C002B9DD0204698476B
:103E10009AE7E36B002B97D02046984794E712F07F
:103E2000200F40D123683549354A934218BF8B4251
:103E30002FD0183293422CD01832934229D0183206
:103E4000934226D01832934223D01832934220D086
:103E5000183293421DD002F55672934219D018328F
:103E6000934216D01832934213D01832934210D096
:103E7000183293420DD0183293420AD0183293422E
:103E800007D01832934204D01A6822F00A021A604E
:103E900003E01A6822F014021A60012384F8353016
:103EA000002384F83430E36B002B3FF44DAF204601
:103EB000984749E7082000FA01F111EA0C0F3FF496
:103EC00043AF12F0080F3FF43FAF1A6822F00E0222
:103ED0001A60E36D03F01F03012202FA03F37B6013
:103EE000626584F83520002384F83430E36C002BBD
:103EF0003FF42AAF2046984726E700BF1000024053
:103F00002800024030B4416B0468D4F884306F4A12
:103F1000134043EA8103C4F884300468D4F8843041
:103F200023F47F03856B43EA0543C4F88430836B35
:103F30000B440468D4F88810114041EA8301C4F8A6
:103F400088100468D4F8881021F4FE01C56B41EA9A
:103F50000541C4F88810C16B03EB41030468D4F831
:103F6000A010114041EA8301C4F8A0100468D4F8FD
:103F7000A01021F4FE01056C41EA0541C4F8A0102F
:103F8000016C446C04FB01330468D4F8B010114098
:103F900041EA8301C4F8B0100468D4F8B01021F4E9
:103FA000FE01856C41EA0541C4F8B010816CC46C17
:103FB00004FB01330468D4F8AC10114041EA8301DA
:103FC000C4F8AC10016D446D04FB01330468D4F8EF
:103FD000F010114041EA8301C4F8F0100468D4F8ED
:103FE000F01021F47C11856D41EA0541C4F8F01010
:103FF000816D03EB41030468D4F8C0100A4042EA23
:104000008303C4F8C0300268D2F8C03023F47C13B4
:10401000C16D43EA0143C2F8C0300268D2F8C03033
:1040200023F07C53016E43EA0163C2F8C030436B56
:10403000274A1A449200C266836B02EB830303672C
:10404000C16B03EBC1034367016C446C04FB01F1DA
:1040500003EB81038367816CC46C04FB01F103EB08
:104060008103C367016D446D04FB01F103EB810320
:10407000C0F88030816D03EBC103C0F88430816EDD
:10408000C46D01FB04FC03EB8C03C0F88830046EA4
:1040900004FB01F103EB8103C0F890300D498B4222
:1040A0000DD9D0F89C3043F02003C0F89C30032396
:1040B00080F89830012007E0002342F8043BD0F854
:1040C00090309342F8D8002030BC70470300FFFFC7
:1040D000002B0010FCD3004030B595B004464C22B4
:1040E000A04901A8FCF7ACFC002C00F03881236843
:1040F0009D4A934220D094F898300BB3226893697C
:1041000023F010039361FEF755FE054623689A6974
:1041100012F0080F1AD0FEF74DFE431B0A2BF5D9FB
:10412000D4F89C3043F00103C4F89C30032384F896
:104130009830012015B030BD03F580736360DAE775
:1041400084F899302046FDF783FED7E79A6942F05C
:1041500001029A61FEF72EFE054623689A6912F065
:10416000010F0FD1FEF726FE401B0A28F5D9D4F81F
:104170009C3043F00103C4F89C30032384F898304A
:104180000120D7E79A6942F002029A61237C012B51
:1041900040D02268936943F040039361637C012B14
:1041A0003ED02268936923F480439361A37C012B62
:1041B0003CD02268936943F48053936122689369E9
:1041C00023F44073A1680B4393612268936923F041
:1041D000A40393612268136923F010031361E36859
:1041E000012B29D0002B2CD0022B00F09B802268C1
:1041F000936943F0800393612268136943F01003CD
:104200001361E368032B1CD12268936943F02003F8
:10421000936116E02268936923F040039361BDE740
:104220002268936943F480439361BFE722689369EE
:1042300023F480539361C1E72268936943F0040338
:104240009361A3695A1EE369013B1B0243EA42637F
:10425000226A013A13436269013A216843EA024340
:10426000CB61A368B3F5407F62D0236E33B122687F
:10427000D2F8C030616E0B43C2F8C030E36D226EDD
:10428000D3420DD02168D1F8C83023F00703A26EC5
:1042900014A800EB820252F84C2C1343C1F8C8302A
:1042A000236C6BB12168D1F8BC3023F00703626C3A
:1042B00014A800EB820252F84C2C1343C1F8BC3016
:1042C000A36C73B12168D1F8BC3023F07003E26CA9
:1042D00014A800EB820252F84C2C43EA0213C1F8F6
:1042E000BC30236D73B12168D1F8BC3023F4E06396
:1042F000626D14A800EB820252F84C2C43EA0223B0
:10430000C1F8BC302268184B9A4222D00023C4F86E
:104310009430C4F89C30012384F898302046FFF78D
:10432000F1FD07E72268936943F02003936188E772
:10433000A36A013BE26A013A43EA0223226B013A93
:1043400043EA0213626A013A216843EA0243CB60FE
:104350008BE76268936823F003039360D6E701203C
:10436000E8E600BFB823010800A0004070B590F84F
:104370009840022C40F0DE8040290CD041293DD0ED
:10438000046D8C426DD8D0F89C3043F02003C0F807
:104390009C300120D5E00468D4F8A05015F4FE0F3D
:1043A0000CD0D4F8A45015F07F0F0FD1D0F89C306A
:1043B00043F48073C0F89C300120C2E0D0F89C30F8
:1043C00043F02003C0F89C300120BAE0D4F8A45098
:1043D00015F0807504D0D4F8A050002D0CDB00251A
:1043E000D4F8A440C4F305242544446C05FB04F42C
:1043F000466F06EB840E3BE00125F1E70468D4F834
:10440000B05015F4FE0F0CD0D4F8B45015F07F0F57
:104410000FD1D0F89C3043F48073C0F89C30012059
:104420008FE0D0F89C3043F02003C0F89C3001208E
:1044300087E0D4F8B45015F0807504D0D4F8B050AB
:10444000002D0CDB0025D4F8B440C4F3052425442A
:10445000C46C05FB04F4866F06EB840E08E00125AE
:10446000F1E7C56F446D01FB04F405EB840E0025F4
:10447000DEF8004004F08044546064BBDEF8004085
:10448000C4F38A441460DEF8004004F000549460E1
:10449000DEF8004004F000441461BEF80440D4612A
:1044A000BEF8064004F00F04D460DEF8044004F4C3
:1044B00080145461DEF8044004F4001494619EF802
:1044C000074004F07F041462DEF80440E40F5462F5
:1044D0004FF0000C0CE0DEF8004024F06044146063
:1044E000D1E70EEB0C04247A03F80C400CF1010C1C
:1044F000144CD668A45D6445F3D8402909D04129FD
:104500000CD01F290ED8026801238B40C2F89830C6
:1045100002E00368C3F8A850002012E00368C3F863
:10452000B850F9E701F01F01026801238B40C2F87F
:104530009C30F1E7D0F89C3043F00803C0F89C3081
:10454000012070BDD8270108704770477047704739
:1045500070477047704770477047704770477047A3
:1045600070477047704770472DE9F04F83B004469D
:10457000904B1A695B69134001939B070093036892
:104580001A6D02F4704A5A6D0AEA020A1A6D02F0B4
:104590000F095A6D09EA02091A6D02F0F0085A6D06
:1045A00008EA02081E6D06F071565A6D16401F6D1E
:1045B00007F060775A6D17405D6DD3F850B015F471
:1045C000807F02D01BF4807F64D115F4806F02D00D
:1045D0001BF4806F67D1009B002B74D1BAF1000FE0
:1045E0007ED1B9F1000F40F08780B8F1000F40F0A4
:1045F0008F8015F4006F03D01BF4006F40F094809F
:1046000015F4007F03D01BF4007F40F0988015F470
:10461000002F03D01BF4002F40F0A18015F4803F41
:1046200003D01BF4803F40F0A58015F4802F03D009
:104630001BF4802F40F0A98015F4003F0FD01BF42D
:10464000003F0CD023684FF400321A65594B00220A
:104650001A61D4F89C3043F08003C4F89C30002FDA
:1046600040F09E804EB123681E65B20F514B1A6117
:10467000D4F89C303343C4F89C3022684E4B9A42A5
:1046800000F09C80D4F89C30002B40F0F98003B0FF
:10469000BDE8F08F4FF480721A65464B00221A6114
:1046A000FFF75BFF91E72368D3F8DC10D3F8E42031
:1046B0004FF4806018653F4B002018611140204680
:1046C000FFF747FF87E7236800221A65019B03F085
:1046D0000303384A136100992046FFF735FF7DE751
:1046E0002368C3F850A04FEA9A72324B1A615146C0
:1046F0002046FFF72AFF74E72368C3F850904FEA7B
:1047000099722C4B1A6149462046FDF7E1FA6CE795
:104710002368C3F850804FEA9872264B1A614146CD
:104720002046FFF713FF64E723684FF400621A6521
:10473000204B00221A612046FFF709FF60E723683B
:10474000D3F8D810D3F8E0204FF400701865194B57
:104750000020186111402046FFF7FAFE57E7236852
:104760004FF400221A65134B00221A612046FFF70E
:10477000F1FE53E723684FF480321A650D4B002297
:104780001A612046FFF7E7FE4FE723684FF48022C7
:104790001A65084B00221A612046FFF7DDFE4BE741
:1047A00023681F65BA0F034B1A6139462046FFF78D
:1047B000D6FE57E700A8004000A0004063689A6852
:1047C00012F0030F3FF45EAF196A01F00F015A6A4D
:1047D000186A00F03008586A08EA00081F6A07F4EF
:1047E000C077586A07401E6A06F4FC46586A0640BD
:1047F0001D6A05F4F025586A0540D3F82490D3F8D3
:1048000020A011401CD1B8F1000F1ED119F0400FAB
:1048100002D01AF0400F20D15FBB36B163681E6230
:10482000D4F89C303343C4F89C30002D3FF42AAFB9
:1048300063681D62D4F89C302B43C4F89C3021E798
:1048400019622046FFF78CFEDDE76368C3F820801D
:1048500041462046FFF785FED8E76368D96BDA6BDF
:104860004020186202F03F02090C2046FFF77AFE52
:10487000D2E763681F6239462046FFF774FECCE733
:104880002046FFF76BFE02E7F0B583B000236BE034
:1048900085685E000324B44025EA0405CC68B44072
:1048A0002C438460456825EA0C054C68C4F3001469
:1048B0009C402C43446069E0DD08083550F82540F1
:1048C00003F0070C4FEA8C0C4FF00F0E0EFA0CFEA3
:1048D00024EA0E0E0C6904FA0CF444EA0E0440F8C3
:1048E00025406BE0092400E0002404FA0EF42C4378
:1048F0000CF1020C694D45F82C404FF0B04425688E
:10490000D44325EA02064F6817F4801F01D042EA1B
:1049100005064FF0B0452E606D6804EA05064F6845
:1049200017F4001F01D042EA05064FF0B0456E6053
:10493000D5F8845004EA05064F6817F4003F01D00B
:1049400042EA05064FF0B045C5F88460D5F88050BE
:104950002C404E6816F4803F01D042EA05044FF027
:10496000B042C2F8804001330A6832FA03F400F022
:1049700092804FF0010C0CFA03FC1CEA0202F2D008
:104980004C6804F00304013C012C81D94C6804F00C
:104990000304032C0CD0C4685D004FF0030C0CFA28
:1049A00005FC24EA0C0C8C68AC4044EA0C04C4609E
:1049B0004C6804F00304022C3FF47EAF04684FEA15
:1049C000430E4FF0030C0CFA0EFC24EA0C0C4C685E
:1049D00004F0030404FA0EF444EA0C0404604C6886
:1049E00014F4403FBFD02E4CD4F8F45045F00205EB
:1049F000C4F8F450D4F8F44004F002040194019C8B
:104A00004FEA930C0CF10205244C54F8255003F0A6
:104A1000030E4FEA8E0E0F2404FA0EF425EA040565
:104A2000204CA0423FF460AF04F58064A04222D045
:104A300004F58064A04220D004F58064A0421ED01A
:104A400004F58064A0421CD004F58064A0421AD012
:104A500004F58064A04218D004F58064A04216D00A
:104A600004F58064A04214D004F58064A0423FF4B1
:104A700039AF0A2439E7012437E7022435E7032454
:104A800033E7042431E705242FE706242DE7072424
:104A90002BE7082429E703B0F0BD00BF000400584D
:104AA00000440258000002580369194201D0012055
:104AB0007047002070470AB1816170470904816125
:104AC000704708B54FF0B043D3F88830034200D1A7
:104AD00008BD4FF0B043C3F88800FCF7DFFEF7E7EE
:104AE000002831D038B5044603684CF6CC421A6031
:104AF000036845F255521A60036842685A600368B9
:104B000082689A60FEF756F905462368DA6812F063
:104B1000070F0DD0FEF74EF9401B41F601039842F6
:104B2000F3D92368DB6813F0070FEED0032005E00C
:104B30001969E268914202D01A61002038BD4AF634
:104B4000AA221A600020F9E701207047134BDB68A6
:104B500013F0040F07D1114BDB6803F00703834206
:104B60001AD00120704710B50C4AD36823F0070310
:104B70000343D360FEF71EF90446084B5B6813F449
:104B8000005F07D1FEF716F9001BB0F57A7FF4D964
:104B9000012000E0002010BD0020704700480258AE
:104BA000002800F0398338B50446036813F0010F7C
:104BB00025D0944A136903F03803926A102B15D05C
:104BC000182B0FD06368B3F5803F3FD0002B53D133
:104BD0008C4B1A6822F480321A601A6822F4802200
:104BE0001A6038E002F00302022AEBD1854B1B6801
:104BF00013F4003F03D06368002B00F00F83236899
:104C000013F0020F00F0A1807E4A1369926A13F03C
:104C100038035AD0182B55D0E368002B00F0DE8003
:104C200078490A6822F0190213430B60FEF7C2F8B4
:104C30000546744B1B6813F0040F40F0AD80FEF77F
:104C4000B9F8401B0228F4D90320EEE26D4A13683C
:104C500043F48033136063682BB3FEF7ABF805466B
:104C6000684B1B6813F4003FC9D1FEF7A3F8401B43
:104C70006428F5D90320D8E2B3F5A02F09D0614B01
:104C80001A6822F480321A601A6822F480221A60AC
:104C9000E1E75C4B1A6842F480221A601A6842F419
:104CA00080321A60D7E7FEF785F80546554B1B683A
:104CB00013F4003FA3D0FEF77DF8401B6428F5D91C
:104CC0000320B2E212F0030FA6D14E4B1B6813F083
:104CD000040F03D0E368002B00F0A282494A136856
:104CE00023F01903E1680B431360FEF763F80546F0
:104CF000444B1B6813F0040F06D1FEF75BF8401B12
:104D00000228F5D9032090E2FEF76EF841F2030382
:104D1000984212D82269402A07D03A494B6823F4B6
:104D20007C3343EA02334B600FE0364A536823F486
:104D30007C3343F40033536007E0324A536823F076
:104D4000FE43216943EA01635360236813F0100FA7
:104D500000F088802B4A136903F03803926A082B0D
:104D600056D0182B50D0E369002B00F0B880254AAC
:104D7000136843F080031360FEF71CF80546214BCF
:104D80001B6813F4807F40F08880FEF713F8401B07
:104D90000228F4D9032048E2FEF726F841F2030383
:104DA000984212D82269402A07D016494B6823F44A
:104DB0007C3343EA02334B60C7E7124A536823F45B
:104DC0007C3343F400335360BFE70E4A536823F04B
:104DD000FE43216943EA01635360B6E7094A136859
:104DE00023F001031360FDF7E5FF0546054B1B6843
:104DF00013F0040FA9D0FDF7DDFF401B0228F5D901
:104E0000032012E20044025802F00302012AAAD150
:104E1000A14B1B6813F4807F03D0E369802B40F023
:104E20000182FDF7E1FF41F20303984212D8226AA2
:104E3000202A07D098494B6823F0F84343EA82635D
:104E40004B600FE0944A536823F0F84343F08043EB
:104E5000536007E0904AD36823F07C53216A43EA09
:104E60000163D360236813F0080F60D06369002BDF
:104E700049D0894A536F43F001035367FDF79AFF06
:104E80000546854B5B6F13F0020F50D1FDF792FF83
:104E9000401B0228F5D90320C7E1FDF7A5FF41F229
:104EA0000303984212D8226A202A07D07A494B6815
:104EB00023F0F84343EA82634B60D3E7764A5368B2
:104EC00023F0F84343F080435360CBE7724AD36842
:104ED00023F07C53216A43EA0163D360C2E76E4A40
:104EE000136823F080031360FDF764FF05466A4BE7
:104EF0001B6813F4807FB5D0FDF75CFF401B0228D0
:104F0000F5D9032091E1644A536F23F001035367FD
:104F1000FDF750FF0546604B5B6F13F0020F06D0A4
:104F2000FDF748FF401B0228F5D903207DE12368E7
:104F300013F0200F29D0A3699BB1574A136843F49B
:104F400080531360FDF736FF0546534B1B6813F47F
:104F5000005F1AD1FDF72EFF401B0228F5D9032070
:104F600063E14D4A136823F480531360FDF722FF79
:104F70000546494B1B6813F4005F06D0FDF71AFF86
:104F8000401B0228F5D903204FE1236813F0040FDA
:104F900021D1636A002B00F047813F4A126902F079
:104FA0003802182A00F0EE80022B79D03A4A1368B2
:104FB00023F080731360FDF7FDFE0446364B1B683B
:104FC00013F0007F00F0DC80FDF7F4FE001B0228E8
:104FD000F4D9032029E1314A136843F48073136044
:104FE000FDF7E8FE05462D4B1B6813F4807F06D1C4
:104FF000FDF7E0FE401B6428F5D9032015E1A36806
:10500000012B0AD00BBB244B1A6F22F001021A6746
:105010001A6F22F004021A6704E01F4A136F43F06C
:1050200001031367A36833B3FDF7C4FE05461A4BAB
:105030001B6F13F0020FACD1FDF7BCFE401B41F219
:1050400088339842F3D90320EFE0052B09D0124BA7
:105050001A6F22F001021A671A6F22F004021A670F
:10506000E0E70D4B1A6F42F004021A671A6F42F024
:1050700001021A67D6E7FDF79DFE0546064B1B6F3A
:1050800013F0020F85D0FDF795FE401B41F28833E7
:105090009842F3D90320C8E000440258004802585F
:1050A000694A136823F080731360FDF783FE054699
:1050B000654B1B6813F0007F06D0FDF77BFE401B9D
:1050C0000228F5D90320B0E05F4B996A5F4A0A4095
:1050D000A16AE06A41EA00110A439A62226B013A2E
:1050E000C2F30802616B0139490289B20A43A16B1C
:1050F0000139090401F4FE010A43E16B0139090693
:1051000001F0FE410A431A63DA6A22F00102DA6210
:105110005A6B6FF3CF02A16C42EAC1025A63DA6A9A
:1051200022F00C02216C0A43DA62DA6A22F00202EF
:10513000616C0A43DA62DA6A42F48032DA62DA6A6D
:1051400042F40032DA62DA6A42F48022DA62DA6A1F
:1051500042F00102DA621A6842F080721A60FDF7CA
:1051600029FE0446384B1B6813F0007F06D1FDF77B
:1051700021FE001B0228F5D9032056E0002054E050
:10518000002052E0304A916A106B012B4ED001F0A2
:105190000303A26A93424BD1C1F30511E36A99421A
:1051A00048D1C0F30802236B013B9A4244D1C0F3BB
:1051B0004622636B013B9A4240D1C0F30642A36B87
:1051C000013B9A423CD1C0F30660E36B013B98423D
:1051D00038D11D4B5B6BC3F3CC03A26C9A4201D157
:1051E000002022E0184AD36A23F00103D362FDF7BE
:1051F000E1FD0546FDF7DEFDA842FBD0124A536BE8
:105200006FF3CF03A16C43EAC1035363D36A43F046
:105210000103D362002008E001207047012004E070
:10522000012002E0012000E0002038BD0120FCE761
:105230000120FAE70120F8E70120F6E70120F4E772
:105240000120F2E70120F0E7004402580CFCFFFFC8
:10525000754B1B6903F03803102B00F0DE80182B10
:105260000FD0002B40F0DB806F4B1B6813F0200F3A
:1052700000F0D7806C4B1B68C3F3C1036B48D84068
:10528000704710B4684B9A6A02F003029C6AC4F338
:105290000510D96A01F001015B6BC3F3CC0301FB7C
:1052A00003F307EE903AF8EE677A14F47C7F77D038
:1052B000012A4AD0022A76D0002A40F091805A4B27
:1052C0001B6813F0200F23D057490A68C2F3C102AC
:1052D000564BD34007EE103AF8EE476A07EE100A35
:1052E000B8EE476A86EE867A0B6BC3F3080306EEC8
:1052F000903AF8EE666A9FED4E6A67EE867A76EE31
:10530000A77AF7EE006A77EEA67A27EE277A38E0DA
:1053100007EE100AF8EE476A9FED466A86EE267A97
:10532000414B1B6BC3F3080306EE903AF8EE666A36
:105330009FED3F6A67EE867A76EEA77AF7EE006A0F
:1053400077EEA67A27EE277A1BE007EE100AF8EE32
:10535000476A9FED396A86EE267A334B1B6BC3F39F
:10536000080306EE903AF8EE666A9FED316A67EE42
:10537000867A76EEA77AF7EE006A77EEA67A27EEBF
:10538000277A294B1B6BC3F34623013307EE903A70
:10539000F8EE677AC7EE276AFCEEE67A17EE900A17
:1053A0005DF8044B704707EE100AF8EE476A9FED70
:1053B000236A86EE267A1C4B1B6BC3F3080306EEAA
:1053C000903AF8EE666A9FED1A6A67EE867A76EE94
:1053D000A77AF7EE006A77EEA67A27EE277AD0E76B
:1053E00007EE100AF8EE476A9FED136A86EE267AFA
:1053F0000D4B1B6BC3F3080306EE903AF8EE666A9A
:105400009FED0B6A67EE867A76EEA77AF7EE006A72
:1054100077EEA67A27EE277AB3E70948704709485E
:1054200070470248704700BF004402580090D00304
:10543000000000390024744C0024744A20BCBE4B88
:1054400040787D0100093D00002800F0328170B5F0
:105450000D4604469B4B1B6803F00F038B420BD297
:10546000984A136823F00F030B431360136803F08B
:105470000F038B4240F01F81236813F0040F0CD000
:105480002269914B9B6903F070039A4205D98E49BA
:105490008B6923F070031A438A61236813F0080FA5
:1054A0000CD06269884BDB6903F070039A4205D91E
:1054B0008549CB6923F070031A43CA61236813F04E
:1054C000100F0CD0A269804BDB6903F4E0639A42B1
:1054D00005D97D49CB6923F4E0631A43CA61236887
:1054E00013F0200F0CD0E269774B1B6A03F07003B6
:1054F0009A4205D974490B6A23F070031A430A6271
:10550000236813F0020F0CD0E2686F4B9B6903F025
:105510000F039A4205D96C498B6923F00F031A4394
:105520008A61236813F0010F41D0674A936923F41D
:105530007063A1680B4393616368022B0AD0032B4D
:1055400027D0012B2CD0604A126812F0040F06D12C
:105550000120ADE0126812F4003F00F0AE805A491D
:105560000A6922F0070213430B61FDF723FC06468C
:10557000554B1B6903F038036268B3EBC20F16D0BA
:10558000FDF718FC801B41F288339842F0D90320C4
:105590008EE04D4A126812F0007FE0D1012087E0D2
:1055A000494A126812F4807FD9D1012080E0236833
:1055B00013F0020F0CD0E268434B9B6903F00F031A
:1055C0009A4205D240498B6923F00F031A438A613E
:1055D0003C4B1B6803F00F03AB420AD9394A1368EE
:1055E00023F00F032B431360136803F00F03AB4248
:1055F00065D1236813F0040F0CD02269324B9B69EC
:1056000003F070039A4205D22F498B6923F070038F
:105610001A438A61236813F0080F0CD062692A4B81
:10562000DB6903F070039A4205D22749CB6923F066
:1056300070031A43CA61236813F0100F0CD0A269DB
:10564000214BDB6903F4E0639A4205D21E49CB6922
:1056500023F4E0631A43CA61236813F0200F0CD0CF
:10566000E269194B1B6A03F070039A4205D216498E
:105670000B6A23F070031A430A62FFF7E9FD12492F
:105680008B69C3F30323114AD35C03F01F03D84093
:105690008B6903F00F03D35C03F01F0320FA03F3BD
:1056A0000B4A13600B4B18600B4B1868FCF7CCFFD0
:1056B00070BD012070470120FAE70120F8E70120C2
:1056C000F6E700BF0020005200440258C02701083E
:1056D00000000024040000240C00002408B5FFF79B
:1056E000B7FD0B4A9369C3F303230A49CB5C03F06C
:1056F0001F0320FA03F3926902F00F02885C00F0A6
:105700001F0023FA00F0044A1060044A136008BD29
:1057100000440258C02701080000002404000024AF
:1057200008B5FFF7DBFF054BDB69C3F30213044A3F
:10573000D35C03F01F03D84008BD00BF00440258EB
:10574000C027010808B5FFF7C9FF054BDB69C3F3A4
:105750000223044AD35C03F01F03D84008BD00BFF6
:1057600000440258C02701083F230360114B1A6907
:1057700002F0070242609A6902F4706282609A69DC
:1057800002F00F02C2609A6902F070020261DA69E7
:1057900002F070024261DA6902F4E06282611B6A1F
:1057A00003F07003C361044B1B6803F00F030B602D
:1057B000704700BF0044025800200052404B9B6AD3
:1057C00003F00303032B79D070B505460E463C4A1F
:1057D000136823F080631360FDF7ECFA0446384B3E
:1057E0001B6813F0006F06D0FDF7E4FA031B022BD1
:1057F000F5D9032070BD324B9A6A22F47C322968B5
:1058000042EA01329A626A68013AC2F30802A96860
:105810000139490289B20A43E9680139090401F4EE
:10582000FE010A4329690139090601F0FE410A43D4
:105830009A63DA6A22F0C00269690A43DA62DA6AB4
:1058400022F02002A9690A43DA62DA6A22F0100221
:10585000DA62DA6B6FF3CF02E96942EAC102DA6316
:10586000DA6A42F01002DA62C6B91A46DB6A43F419
:105870000023D362124A136843F080631360FDF77C
:1058800099FA04460E4B1B6813F0006F14D1FDF714
:1058900091FA001B0228F5D90320ABE7012E05D0B1
:1058A000074AD36A43F40013D362E3E7044AD36A96
:1058B00043F48013D362DDE700209BE701207047AB
:1058C00000440258404B9B6A03F00303032B79D03A
:1058D00070B505460E463C4A136823F080531360AA
:1058E000FDF768FA0446384B1B6813F0005F06D0DA
:1058F000FDF760FA031B022BF5D9032070BD324B74
:105900009A6A22F07C72296842EA01529A626A68B5
:10591000013AC2F30802A9680139490289B20A436F
:10592000E9680139090401F4FE010A4329690139D2
:10593000090601F0FE410A431A64DA6A22F4406261
:1059400069690A43DA62DA6A22F40072A9690A43D1
:10595000DA62DA6A22F48072DA625A6C6FF3CF028A
:10596000E96942EAC1025A64DA6A42F48072DA6290
:10597000C6B91A46DB6A43F48003D362124A13683D
:1059800043F080531360FDF715FA04460E4B1B6875
:1059900013F0005F14D1FDF70DFA001B0228F5D9B2
:1059A0000320ABE7012E05D0074AD36A43F080738A
:1059B000D362E3E7044AD36A43F40003D362DDE72A
:1059C00000209BE70120704700440258F8B50446C8
:1059D000036813F0006F30D0836EB3F5001F26D03C
:1059E0000ED8ABB1B3F5801F07D102210830FFF705
:1059F000E5FE054695B12E4621E0012635461EE01E
:105A0000B3F5401F01D1002508E00126354616E018
:105A10009A4AD36A43F40033D3620025974A136D40
:105A200023F44013A16E0B431365002607E0022107
:105A30002830FFF747FF0546DCE700263546236898
:105A400013F4807F14D0A36D042B31D8DFE803F06A
:105A5000032229080800894AD36A43F40033D36239
:105A60004DBB864A136D23F00703A16D0B431365ED
:105A7000236813F4007F3FD0E36D802B2ED01FD816
:105A800033B3402B19D1002104F10800FFF796FE33
:105A9000054629E0002104F10800FFF78FFE0546C6
:105AA000DEE7002104F12800FFF70CFF0546D7E7E9
:105AB00001263546DCE72E46DAE7012635461BE0AF
:105AC000C02B11D0B3F5807F0ED00126354613E0F0
:105AD0006A4AD36A43F40033D36205E0002104F13B
:105AE0002800FFF7EFFE0546DDB9644A136D23F485
:105AF000E073E16D0B431365236813F4806F33D0BB
